:100A2A003430343653656E68613A004163636573E6
:100A3A0073204772616E746564004552524F5520A7
:040A4A004B4B4B00C7
:070B1700C100C101010F0440
:0B0AF7007F10AE071FEED3940050F7F5
:010B020022D0
:100A8C007EFFAD061EEDD39400400D7FFFAD071F1A
:080A9C00EDD3940040EC80F55D
:010AA400222F
:060B030054F042068E9042
:050B0900D292C292220D
:100A0600C293E590540F4420F590120B09120AF791
:100A1600120B09120AF7E590540F4480F590120B59
:040A260009020AF7C0
:100AA500C29353900F120B09E590540F44F0F59043
:060AB500120B09020AF712
:100ABB00C29353900F120B09E590540F4460F590BD
:060ACB00120B09020AF7FC
:100AD100E590540FFEEF120B03E590540FFEEFC4A7
:060AE100120B03020AF7EC
:060A4E008B138A148915C8
:100A5400AB130515E515AA147002051414F912094F
:0C0A6400DBFD6008D293FF120AD180E491
:010A70002263
:100AE700C293E590540F44C0F590120B09020AF720
:100A7100E5805470FFBF70F8758901758C8A758A9D
:0B0A8100CFD28C308DFDC28CC28D22C4
:10080000E4FEC200C283D282D281D2802084067EDE
:1008100033D20080102085067E32D20080072086E9
:10082000047E31D200D283200075D283C282D2816D
:10083000D2802084067E36D20080102085067E3548
:10084000D20080072086047E34D200D28220004F5E
:10085000D283D282C281D2802084067E39D20080A7
:10086000102085067E38D20080072086047E37D28D
:1008700000D281200029D283D282D281C2802084FA
:10088000067E23D20080102085067E30D2008007AD
:100890002086047E2AD200D28020000302080212A1
:1008A0000A71E50FD394004017AB0CAA0DA90EEE08
:1008B0001209F47401250EF50EE4350DF50D150F32
:0208C000AF0681
:0108C2002213
:10094F00751000751100751230E4FDAB10AA11A9D6
:10095F00121209DBFFED900A2A936F6027120AE744
:10096F007BFF7A0A7944120A4E750F04750C0075D5
:10097F000D00750E30120A8C120A8C120A8C120A94
:10098F008C020A8C74012512F512E43511F5110D44
:10099F00BD04B8120AE77BFF7A0A7935120A4E8036
:0109AF00FE49
:090B0E007BFF7A0A792E020A4EDF
:1009B000C287750F04C201750C00750D00750E30ED
:1009C000120A06120AA5120ABB120B0E120800AD7B
:0B09D00007D293120AD1BD23F380FE72
:030000000208C330
:0C08C300787FE4F6D8FD75812002090A58
:1009DB00BB010689828A83E0225002E722BBFE021A
:0909EB00E32289828A83E493224D
:1009F400BB010689828A83F0225002F722BBFE01E2
:020A0400F322DB
:1008CF000209B0E493A3F8E493A34003F68001F286
:1008DF0008DFF48029E493A3F85407240CC8C3332A
:1008EF00C4540F4420C8834004F456800146F6DFF9
:1008FF00E4800B0102040810204080900B17E47E67
:10090F00019360BCA3FF543F30E509541FFEE493ED
:10091F00A360010ECF54C025E060A840B8E493A3B4
:10092F00FAE493A3F8E493A3C8C582C8CAC583CADF
:10093F00F0A3C8C582C8CAC583CADFE9DEE780BE97
:010B1E0000D6
:00000001FF
