:1008E2008040201008040201010204081020408008
:1008F20003FF02BF03FF0380838EC3FEE3FFFFFEFD
:10090200FFFE7FFE3FFC1FF007300630063007383F
:100912000000018001800180198C198C198C198CBE
:100922001F8C0F8C07FC03F801800180018003C03B
:100932000000000800180038007801F807F81FF8D6
:100942003FFF1FBE07F003E001C00080000000006F
:10095200000000000001C0000007F000000FF800D6
:10096200001FFC0001FFFF8003FFFFC007FFFFE045
:100972000FFFFFF01FFFFFF80FFFFFF00000000066
:100982003E5149453E00427F400042615149462165
:1009920041454B311814127F1027454545393C4AD1
:1009A2004949300171090503364949493606494921
:0209B200291EFC
:060EBD00012E550108FFA3
:100E6B00EFC394805014EF131313541F241DF8E693
:0B0E7B00FEEF54079008E2934EF622B1
:100E4F00E52E33333354F8622EE52EC41354076264
:0C0E5F002EE52E25E025E0622EAF2E22AD
:0B0EB200EF1FAC0670011E4C70F62212
:100E2F00E4FDFCC3ED9FEC9E5015E4FBFA0BBB00F9
:0F0E3F00010AEB64784A70F50DBD00010C80E4E8
:010E4E002281
:100E0D00E4FF7580F7AE80EE20E409E50830E404D8
:100E1D007F33800BEE20E507E50830E5027F328E4B
:010E2D0008BC
:010E2E0022A1
:0C0EA600D2A27F017E00120EB2C2A22276
:100E8600C2A0C2A18FB0120EA67F057E00020EB2CE
:100E9600D2A0C2A18FB0120EA67F027E00020EB2B1
:100D1C00D2A3C2A57F0A7E00120E2FD2A57F141279
:100D2C000E2F7F30120E867F0C120E867F01120E54
:100D3C00867F0A7E00120E2F7F34120E867F3602BB
:020D4C000E8611
:060C38007B007A00791D2B
:080C3E008B388A39893AAD07B1
:100C4600EDC39420ED500A4480FF120E867F80800B
:100C56000A24E04480FF120E867F88120E86E4FD89
:100C6600E509AB38AA39A93A600B8D827583001263
:100C76000DE0F480088D82758300120DE0FF120EE0
:050C8600960DBD10DB1E
:010C8B002246
:020B7100A907D2
:100B7300EDC39B405FEB253EFFE433FEEDC39FEEE9
:100B83006480F8748098504CC3ED9BFDE4FCECC387
:100B9300953D5040E53DB40203ED8003ED25E0258E
:100BA300E0FFEC2FFFE433FEE53C2FF582E53B3E0F
:100BB300F583E493FB601AE4FAEA9008E2935B603E
:100BC3000CEC33333354F8292AFF120E6B0ABA089C
:040BD300E80C80BAF0
:010BD70022FB
:100C8C00EFC39402404CEF94095047EF24FEFDE46F
:100C9C00FCEC75F007A42402FBE4FA74302CF8E6A3
:100CAC0075F005A42482F582E43409F583E5822AE3
:100CBC00F582E43583F583E493FFED9008EA93FE27
:100CCC00EF5E6006EB2AFF120E6B0ABA05CD0CBC68
:020CDC0005BF52
:010CDE0022F3
:10080000E4F536E4F537741D2537F8E4F60537E5E9
:1008100037B410F2753B09753C52753D04753E0CBA
:100820007B04AD36AF2F120B71E53664386005E5F9
:1008300036B43911E4F537741D2537F876FF0537DE
:10084000E537B410F2AF36120C8CE4F537E53725F6
:10085000E025E02414F8E66045E53725E025E024AE
:1008600013F8E6701BE53725E025E02411F8E6FFD4
:10087000753B09753C12753D02753E107B28801949
:10088000E53725E025E02411F8E6FF753B09753CC6
:1008900032753D02753E107B18AD36120B7105376F
:1008A000E537C3940340A6E52D6010753B08753C01
:1008B000F2753D02753E107B16800E753B08753C47
:1008C000F2753D02753E107B28AD367F0A120B7122
:1008D000AF36120C380536E536C394405003020893
:0108E0000314
:0108E10022F4
:100D8000E4F5367F10781DE4F608DFFC753B087546
:100D90003CF2753D02753E107B12AD367F38120B6A
:0F0DA00071AF36120C380536E536C3944040D497
:010DAF002221
:100B0400E52D60047F1680027F2875360C75371733
:100B1400EF2402F538EF240DF9E4FFEF25E025E09A
:100B24002414F8E66040EF25E025E02411F8E6FC03
:100B34002402FBEC240DFCEF25E025E02413F8E669
:100B440070067D2A7E3580047D1A7E25E536D39C89
:100B54005014E537C39B400EE538D39E5008E9C3D3
:0C0B64009D40037F01220FBF03B17F0002
:010B70002262
:100DB000E4FEEE25E025E02414F8E6701E7601EE50
:100DC00025E025E02411F87678120E4FEF5401FF4C
:0F0DD000EE25E025E02413F8A607220EBE03D37C
:010DDF0022F1
:100CDF000534E534D394094005E4F5340533E533A1
:100CEF00D394094005E4F5330532E532D394094036
:100CFF0005E4F5320531E531D394094005E4F531CA
:0D0D0F000530E530D394094003E4F53022AF
:1009B400E4FFEF25E025E02414F8E66025EF25E0C8
:1009C40025E02411F8E6D39404EF500B25E025E04C
:1009D4002414F8E4F6800B25E025E02411F874FCD7
:1009E40026F60FBF03CCE52FD394015005752F785D
:1009F4008002152F050D120E4FEF54072412FFE449
:100A040033FEC3E50D9FEE6480F8748098400612AF
:100A14000DB0E4F50DE52D600E050CE50CC394084E
:100A24004005E4F52DF50C120CDF0510E510C39418
:100A340064400FE50970047F0180027F008F09E4A0
:100A4400F510050FE50FC394324018E4F50FD3E514
:100A54000B9419E50A9400400AE50A13F50AE50B1C
:100A640013F50B120B04EF6003750E01E50E700312
:030A740012080065
:010A7700225C
:100D4E007F057830E4F608DFFC750A00750B64E465
:100D5E00F50FF510F52DF50CF50E750D1EF5097543
:100D6E002F64FFEF25E025E02414F8E4F60FBF030F
:010D7E00F282
:010D7F002251
:100BD800120D1C120D80120E0D8F35E535B432F64C
:100BE800120D4E120800E50E6016E4F509120D808C
:100BF800120E0D8F35E535B432F6120D4E1208007F
:100C0800900000C3E582950BE583950A501D120EEE
:100C18000D8F35E535B43309E52D7005752D01F5D2
:100C28000C7F017E00120E2FA380D81209B480B663
:03000000020A7879
:0C0A7800787FE4F6D8FD75813E020ABFCD
:100DE000BB010CE58229F582E5833AF583E02250C8
:100DF00006E92582F8E622BBFE06E92582F8E22212
:0D0E0000E58229F582E5833AF583E493222B
:100A8400020BD8E493A3F8E493A34003F68001F2A5
:100A940008DFF48029E493A3F85407240CC8C33373
:100AA400C4540F4420C8834004F456800146F6DF42
:100AB400E4800B0102040810204080900EBDE47E07
:100AC400019360BCA3FF543F30E509541FFEE49337
:100AD400A360010ECF54C025E060A840B8E493A3FE
:100AE400FAE493A3F8E493A3C8C582C8CAC583CA29
:100AF400F0A3C8C582C8CAC583CADFE9DEE780BEE1
:010EC300002E
:00000001FF
